{
  "_format": "hh-sol-artifact-1",
  "contractName": "ChildChainGaugeInjectorV2",
  "sourceName": "contracts/ChildChainGaugeInjectorV2.sol",
  "abi": [
    {
      "inputs": [],
      "stateMutability": "nonpayable",
      "type": "constructor"
    },
    {
      "inputs": [
        {
          "internalType": "address",
          "name": "target",
          "type": "address"
        }
      ],
      "name": "AddressEmptyCode",
      "type": "error"
    },
    {
      "inputs": [
        {
          "internalType": "address",
          "name": "account",
          "type": "address"
        }
      ],
      "name": "AddressInsufficientBalance",
      "type": "error"
    },
    {
      "inputs": [],
      "name": "EnforcedPause",
      "type": "error"
    },
    {
      "inputs": [
        {
          "internalType": "address",
          "name": "gaugeAddress",
          "type": "address"
        },
        {
          "internalType": "uint256",
          "name": "amountsPerPeriod",
          "type": "uint256"
        },
        {
          "internalType": "uint256",
          "name": "maxInjectionAmount",
          "type": "uint256"
        }
      ],
      "name": "ExceedsMaxInjectionAmount",
      "type": "error"
    },
    {
      "inputs": [
        {
          "internalType": "uint256",
          "name": "totalDue",
          "type": "uint256"
        }
      ],
      "name": "ExceedsTotalInjectorProgramBudget",
      "type": "error"
    },
    {
      "inputs": [
        {
          "internalType": "uint256",
          "name": "weeklySpend",
          "type": "uint256"
        }
      ],
      "name": "ExceedsWeeklySpend",
      "type": "error"
    },
    {
      "inputs": [],
      "name": "ExpectedPause",
      "type": "error"
    },
    {
      "inputs": [],
      "name": "FailedInnerCall",
      "type": "error"
    },
    {
      "inputs": [
        {
          "internalType": "address",
          "name": "gauge",
          "type": "address"
        },
        {
          "internalType": "address",
          "name": "InjectTokenAddress",
          "type": "address"
        }
      ],
      "name": "InjectorNotDistributor",
      "type": "error"
    },
    {
      "inputs": [],
      "name": "InvalidInitialization",
      "type": "error"
    },
    {
      "inputs": [],
      "name": "NotInitializing",
      "type": "error"
    },
    {
      "inputs": [
        {
          "internalType": "address",
          "name": "sender",
          "type": "address"
        }
      ],
      "name": "OnlyKeepers",
      "type": "error"
    },
    {
      "inputs": [
        {
          "internalType": "address",
          "name": "owner",
          "type": "address"
        }
      ],
      "name": "OwnableInvalidOwner",
      "type": "error"
    },
    {
      "inputs": [
        {
          "internalType": "address",
          "name": "account",
          "type": "address"
        }
      ],
      "name": "OwnableUnauthorizedAccount",
      "type": "error"
    },
    {
      "inputs": [
        {
          "internalType": "address",
          "name": "gaugeAddress",
          "type": "address"
        }
      ],
      "name": "RemoveNonexistentRecipient",
      "type": "error"
    },
    {
      "inputs": [],
      "name": "RewardTokenError",
      "type": "error"
    },
    {
      "inputs": [
        {
          "internalType": "address",
          "name": "token",
          "type": "address"
        }
      ],
      "name": "SafeERC20FailedOperation",
      "type": "error"
    },
    {
      "inputs": [],
      "name": "ZeroAddress",
      "type": "error"
    },
    {
      "anonymous": false,
      "inputs": [
        {
          "indexed": true,
          "internalType": "address",
          "name": "token",
          "type": "address"
        },
        {
          "indexed": false,
          "internalType": "address",
          "name": "recipient",
          "type": "address"
        },
        {
          "indexed": false,
          "internalType": "uint256",
          "name": "amount",
          "type": "uint256"
        }
      ],
      "name": "ERC20Swept",
      "type": "event"
    },
    {
      "anonymous": false,
      "inputs": [
        {
          "indexed": false,
          "internalType": "address",
          "name": "gauge",
          "type": "address"
        },
        {
          "indexed": false,
          "internalType": "address",
          "name": "token",
          "type": "address"
        },
        {
          "indexed": false,
          "internalType": "uint256",
          "name": "amount",
          "type": "uint256"
        }
      ],
      "name": "EmissionsInjection",
      "type": "event"
    },
    {
      "anonymous": false,
      "inputs": [
        {
          "indexed": false,
          "internalType": "uint256",
          "name": "amountWithdrawn",
          "type": "uint256"
        },
        {
          "indexed": false,
          "internalType": "address",
          "name": "recipient",
          "type": "address"
        }
      ],
      "name": "GasTokenWithdrawn",
      "type": "event"
    },
    {
      "anonymous": false,
      "inputs": [
        {
          "indexed": false,
          "internalType": "uint64",
          "name": "version",
          "type": "uint64"
        }
      ],
      "name": "Initialized",
      "type": "event"
    },
    {
      "anonymous": false,
      "inputs": [
        {
          "indexed": false,
          "internalType": "address[]",
          "name": "keeperAddresses",
          "type": "address[]"
        },
        {
          "indexed": false,
          "internalType": "uint256",
          "name": "minWaitPeriodSeconds",
          "type": "uint256"
        },
        {
          "indexed": false,
          "internalType": "address",
          "name": "injectTokenAddress",
          "type": "address"
        },
        {
          "indexed": false,
          "internalType": "uint256",
          "name": "maxInjectionAmount",
          "type": "uint256"
        }
      ],
      "name": "InjectorInitialized",
      "type": "event"
    },
    {
      "anonymous": false,
      "inputs": [
        {
          "indexed": false,
          "internalType": "address[]",
          "name": "oldAddresses",
          "type": "address[]"
        },
        {
          "indexed": false,
          "internalType": "address[]",
          "name": "newAddresses",
          "type": "address[]"
        }
      ],
      "name": "KeeperRegistryAddressUpdated",
      "type": "event"
    },
    {
      "anonymous": false,
      "inputs": [
        {
          "indexed": false,
          "internalType": "uint256",
          "name": "oldAmount",
          "type": "uint256"
        },
        {
          "indexed": false,
          "internalType": "uint256",
          "name": "newAmount",
          "type": "uint256"
        }
      ],
      "name": "MaxInjectionAmountUpdated",
      "type": "event"
    },
    {
      "anonymous": false,
      "inputs": [
        {
          "indexed": false,
          "internalType": "uint256",
          "name": "oldMinWaitPeriod",
          "type": "uint256"
        },
        {
          "indexed": false,
          "internalType": "uint256",
          "name": "newMinWaitPeriod",
          "type": "uint256"
        }
      ],
      "name": "MinWaitPeriodUpdated",
      "type": "event"
    },
    {
      "anonymous": false,
      "inputs": [
        {
          "indexed": true,
          "internalType": "address",
          "name": "previousOwner",
          "type": "address"
        },
        {
          "indexed": true,
          "internalType": "address",
          "name": "newOwner",
          "type": "address"
        }
      ],
      "name": "OwnershipTransferStarted",
      "type": "event"
    },
    {
      "anonymous": false,
      "inputs": [
        {
          "indexed": true,
          "internalType": "address",
          "name": "previousOwner",
          "type": "address"
        },
        {
          "indexed": true,
          "internalType": "address",
          "name": "newOwner",
          "type": "address"
        }
      ],
      "name": "OwnershipTransferred",
      "type": "event"
    },
    {
      "anonymous": false,
      "inputs": [
        {
          "indexed": false,
          "internalType": "address",
          "name": "account",
          "type": "address"
        }
      ],
      "name": "Paused",
      "type": "event"
    },
    {
      "anonymous": false,
      "inputs": [
        {
          "indexed": false,
          "internalType": "address[]",
          "name": "needsFunding",
          "type": "address[]"
        }
      ],
      "name": "PerformedUpkeep",
      "type": "event"
    },
    {
      "anonymous": false,
      "inputs": [
        {
          "indexed": false,
          "internalType": "address",
          "name": "gaugeAddress",
          "type": "address"
        },
        {
          "indexed": false,
          "internalType": "uint256",
          "name": "amountPerPeriod",
          "type": "uint256"
        },
        {
          "indexed": false,
          "internalType": "uint256",
          "name": "maxPeriods",
          "type": "uint256"
        },
        {
          "indexed": false,
          "internalType": "uint256",
          "name": "periodsExecutedLastProgram",
          "type": "uint256"
        },
        {
          "indexed": false,
          "internalType": "uint56",
          "name": "doNotStartBeforeTimestamp",
          "type": "uint56"
        },
        {
          "indexed": false,
          "internalType": "bool",
          "name": "seenBefore",
          "type": "bool"
        }
      ],
      "name": "RecipientAdded",
      "type": "event"
    },
    {
      "anonymous": false,
      "inputs": [
        {
          "indexed": false,
          "internalType": "address",
          "name": "gaugeAddress",
          "type": "address"
        }
      ],
      "name": "RecipientRemoved",
      "type": "event"
    },
    {
      "anonymous": false,
      "inputs": [
        {
          "indexed": false,
          "internalType": "address",
          "name": "token",
          "type": "address"
        }
      ],
      "name": "SetHandlingToken",
      "type": "event"
    },
    {
      "anonymous": false,
      "inputs": [
        {
          "indexed": false,
          "internalType": "address",
          "name": "account",
          "type": "address"
        }
      ],
      "name": "Unpaused",
      "type": "event"
    },
    {
      "inputs": [],
      "name": "InjectTokenAddress",
      "outputs": [
        {
          "internalType": "address",
          "name": "",
          "type": "address"
        }
      ],
      "stateMutability": "view",
      "type": "function"
    },
    {
      "inputs": [
        {
          "internalType": "uint256",
          "name": "",
          "type": "uint256"
        }
      ],
      "name": "KeeperAddresses",
      "outputs": [
        {
          "internalType": "address",
          "name": "",
          "type": "address"
        }
      ],
      "stateMutability": "view",
      "type": "function"
    },
    {
      "inputs": [],
      "name": "MaxGlobalAmountPerPeriod",
      "outputs": [
        {
          "internalType": "uint256",
          "name": "",
          "type": "uint256"
        }
      ],
      "stateMutability": "view",
      "type": "function"
    },
    {
      "inputs": [],
      "name": "MaxInjectionAmount",
      "outputs": [
        {
          "internalType": "uint256",
          "name": "",
          "type": "uint256"
        }
      ],
      "stateMutability": "view",
      "type": "function"
    },
    {
      "inputs": [],
      "name": "MaxTotalDue",
      "outputs": [
        {
          "internalType": "uint256",
          "name": "",
          "type": "uint256"
        }
      ],
      "stateMutability": "view",
      "type": "function"
    },
    {
      "inputs": [],
      "name": "MinWaitPeriodSeconds",
      "outputs": [
        {
          "internalType": "uint256",
          "name": "",
          "type": "uint256"
        }
      ],
      "stateMutability": "view",
      "type": "function"
    },
    {
      "inputs": [],
      "name": "acceptOwnership",
      "outputs": [],
      "stateMutability": "nonpayable",
      "type": "function"
    },
    {
      "inputs": [
        {
          "internalType": "address[]",
          "name": "recipients",
          "type": "address[]"
        },
        {
          "internalType": "uint256",
          "name": "amountPerPeriod",
          "type": "uint256"
        },
        {
          "internalType": "uint8",
          "name": "maxPeriods",
          "type": "uint8"
        },
        {
          "internalType": "uint56",
          "name": "doNotStartBeforeTimestamp",
          "type": "uint56"
        }
      ],
      "name": "addRecipients",
      "outputs": [],
      "stateMutability": "nonpayable",
      "type": "function"
    },
    {
      "inputs": [
        {
          "internalType": "address",
          "name": "gauge",
          "type": "address"
        },
        {
          "internalType": "address",
          "name": "reward_token",
          "type": "address"
        },
        {
          "internalType": "address",
          "name": "distributor",
          "type": "address"
        }
      ],
      "name": "changeDistributor",
      "outputs": [],
      "stateMutability": "nonpayable",
      "type": "function"
    },
    {
      "inputs": [
        {
          "internalType": "bytes",
          "name": "",
          "type": "bytes"
        }
      ],
      "name": "checkUpkeep",
      "outputs": [
        {
          "internalType": "bool",
          "name": "upkeepNeeded",
          "type": "bool"
        },
        {
          "internalType": "bytes",
          "name": "performData",
          "type": "bytes"
        }
      ],
      "stateMutability": "view",
      "type": "function"
    },
    {
      "inputs": [
        {
          "internalType": "uint256",
          "name": "timestamp",
          "type": "uint256"
        }
      ],
      "name": "estimateSpendUntilTimestamp",
      "outputs": [
        {
          "internalType": "uint256",
          "name": "spendUntilTimestamp",
          "type": "uint256"
        }
      ],
      "stateMutability": "view",
      "type": "function"
    },
    {
      "inputs": [],
      "name": "getActiveGaugeList",
      "outputs": [
        {
          "internalType": "address[]",
          "name": "activeGauges",
          "type": "address[]"
        }
      ],
      "stateMutability": "view",
      "type": "function"
    },
    {
      "inputs": [],
      "name": "getBalanceDelta",
      "outputs": [
        {
          "internalType": "int256",
          "name": "delta",
          "type": "int256"
        }
      ],
      "stateMutability": "view",
      "type": "function"
    },
    {
      "inputs": [],
      "name": "getFullSchedule",
      "outputs": [
        {
          "internalType": "address[]",
          "name": "gauges",
          "type": "address[]"
        },
        {
          "internalType": "uint256[]",
          "name": "amountsPerPeriod",
          "type": "uint256[]"
        },
        {
          "internalType": "uint8[]",
          "name": "maxPeriods",
          "type": "uint8[]"
        },
        {
          "internalType": "uint56[]",
          "name": "lastTimestamps",
          "type": "uint56[]"
        },
        {
          "internalType": "uint56[]",
          "name": "doNotStartBeforeTimestamps",
          "type": "uint56[]"
        }
      ],
      "stateMutability": "view",
      "type": "function"
    },
    {
      "inputs": [
        {
          "internalType": "address",
          "name": "targetAddress",
          "type": "address"
        }
      ],
      "name": "getGaugeInfo",
      "outputs": [
        {
          "internalType": "uint256",
          "name": "amountPerPeriod",
          "type": "uint256"
        },
        {
          "internalType": "bool",
          "name": "isActive",
          "type": "bool"
        },
        {
          "internalType": "uint8",
          "name": "maxPeriods",
          "type": "uint8"
        },
        {
          "internalType": "uint8",
          "name": "periodNumber",
          "type": "uint8"
        },
        {
          "internalType": "uint56",
          "name": "lastInjectionTimestamp",
          "type": "uint56"
        },
        {
          "internalType": "uint56",
          "name": "doNotStartBeforeTimestamp",
          "type": "uint56"
        }
      ],
      "stateMutability": "view",
      "type": "function"
    },
    {
      "inputs": [],
      "name": "getKeeperAddresses",
      "outputs": [
        {
          "internalType": "address[]",
          "name": "",
          "type": "address[]"
        }
      ],
      "stateMutability": "view",
      "type": "function"
    },
    {
      "inputs": [],
      "name": "getReadyGauges",
      "outputs": [
        {
          "internalType": "address[]",
          "name": "",
          "type": "address[]"
        }
      ],
      "stateMutability": "view",
      "type": "function"
    },
    {
      "inputs": [],
      "name": "getTotalDue",
      "outputs": [
        {
          "internalType": "uint256",
          "name": "totalDue",
          "type": "uint256"
        }
      ],
      "stateMutability": "view",
      "type": "function"
    },
    {
      "inputs": [],
      "name": "getWeeklySpend",
      "outputs": [
        {
          "internalType": "uint256",
          "name": "weeklySpend",
          "type": "uint256"
        }
      ],
      "stateMutability": "view",
      "type": "function"
    },
    {
      "inputs": [
        {
          "internalType": "address",
          "name": "owner",
          "type": "address"
        },
        {
          "internalType": "address[]",
          "name": "keeperAddresses",
          "type": "address[]"
        },
        {
          "internalType": "uint256",
          "name": "minWaitPeriodSeconds",
          "type": "uint256"
        },
        {
          "internalType": "address",
          "name": "injectTokenAddress",
          "type": "address"
        },
        {
          "internalType": "uint256",
          "name": "maxInjectionAmount",
          "type": "uint256"
        }
      ],
      "name": "initialize",
      "outputs": [],
      "stateMutability": "nonpayable",
      "type": "function"
    },
    {
      "inputs": [
        {
          "internalType": "address[]",
          "name": "gauges",
          "type": "address[]"
        }
      ],
      "name": "injectFunds",
      "outputs": [],
      "stateMutability": "nonpayable",
      "type": "function"
    },
    {
      "inputs": [
        {
          "internalType": "address",
          "name": "gauge",
          "type": "address"
        },
        {
          "internalType": "address",
          "name": "reward_token",
          "type": "address"
        },
        {
          "internalType": "uint256",
          "name": "amount",
          "type": "uint256"
        }
      ],
      "name": "manualDeposit",
      "outputs": [],
      "stateMutability": "nonpayable",
      "type": "function"
    },
    {
      "inputs": [],
      "name": "owner",
      "outputs": [
        {
          "internalType": "address",
          "name": "",
          "type": "address"
        }
      ],
      "stateMutability": "view",
      "type": "function"
    },
    {
      "inputs": [],
      "name": "pause",
      "outputs": [],
      "stateMutability": "nonpayable",
      "type": "function"
    },
    {
      "inputs": [],
      "name": "paused",
      "outputs": [
        {
          "internalType": "bool",
          "name": "",
          "type": "bool"
        }
      ],
      "stateMutability": "view",
      "type": "function"
    },
    {
      "inputs": [],
      "name": "pendingOwner",
      "outputs": [
        {
          "internalType": "address",
          "name": "",
          "type": "address"
        }
      ],
      "stateMutability": "view",
      "type": "function"
    },
    {
      "inputs": [
        {
          "internalType": "bytes",
          "name": "performData",
          "type": "bytes"
        }
      ],
      "name": "performUpkeep",
      "outputs": [],
      "stateMutability": "nonpayable",
      "type": "function"
    },
    {
      "inputs": [
        {
          "internalType": "address[]",
          "name": "recipients",
          "type": "address[]"
        }
      ],
      "name": "removeRecipients",
      "outputs": [],
      "stateMutability": "nonpayable",
      "type": "function"
    },
    {
      "inputs": [],
      "name": "renounceOwnership",
      "outputs": [],
      "stateMutability": "nonpayable",
      "type": "function"
    },
    {
      "inputs": [
        {
          "internalType": "address[]",
          "name": "keeperAddresses",
          "type": "address[]"
        }
      ],
      "name": "setKeeperAddresses",
      "outputs": [],
      "stateMutability": "nonpayable",
      "type": "function"
    },
    {
      "inputs": [
        {
          "internalType": "uint256",
          "name": "amount",
          "type": "uint256"
        }
      ],
      "name": "setMaxInjectionAmount",
      "outputs": [],
      "stateMutability": "nonpayable",
      "type": "function"
    },
    {
      "inputs": [
        {
          "internalType": "uint256",
          "name": "period",
          "type": "uint256"
        }
      ],
      "name": "setMinWaitPeriodSeconds",
      "outputs": [],
      "stateMutability": "nonpayable",
      "type": "function"
    },
    {
      "inputs": [
        {
          "internalType": "address",
          "name": "token",
          "type": "address"
        },
        {
          "internalType": "address",
          "name": "dest",
          "type": "address"
        }
      ],
      "name": "sweep",
      "outputs": [],
      "stateMutability": "nonpayable",
      "type": "function"
    },
    {
      "inputs": [
        {
          "internalType": "address",
          "name": "newOwner",
          "type": "address"
        }
      ],
      "name": "transferOwnership",
      "outputs": [],
      "stateMutability": "nonpayable",
      "type": "function"
    },
    {
      "inputs": [],
      "name": "unpause",
      "outputs": [],
      "stateMutability": "nonpayable",
      "type": "function"
    },
    {
      "inputs": [
        {
          "internalType": "address payable",
          "name": "dest",
          "type": "address"
        }
      ],
      "name": "withdrawGasToken",
      "outputs": [],
      "stateMutability": "nonpayable",
      "type": "function"
    }
  ],
  "bytecode": "0x60806040523480156200001157600080fd5b5033600073ffffffffffffffffffffffffffffffffffffffff168173ffffffffffffffffffffffffffffffffffffffff1603620000885760006040517f1e4fbdf70000000000000000000000000000000000000000000000000000000081526004016200007f9190620001fd565b60405180910390fd5b6200009981620000bb60201b60201c565b506000600160146101000a81548160ff0219169083151502179055506200021a565b600160006101000a81549073ffffffffffffffffffffffffffffffffffffffff0219169055620000f181620000f460201b60201c565b50565b60008060009054906101000a900473ffffffffffffffffffffffffffffffffffffffff169050816000806101000a81548173ffffffffffffffffffffffffffffffffffffffff021916908373ffffffffffffffffffffffffffffffffffffffff1602179055508173ffffffffffffffffffffffffffffffffffffffff168173ffffffffffffffffffffffffffffffffffffffff167f8be0079c531659141344cd1fd0a4f28419497f9722a3daafe3b4186f6b6457e060405160405180910390a35050565b600073ffffffffffffffffffffffffffffffffffffffff82169050919050565b6000620001e582620001b8565b9050919050565b620001f781620001d8565b82525050565b6000602082019050620002146000830184620001ec565b92915050565b614ea3806200022a6000396000f3fe608060405234801561001057600080fd5b506004361061021c5760003560e01c80636f3ec77411610125578063b8dc491b116100ad578063e30c39781161007c578063e30c3978146105b1578063e6013f00146105cf578063f2fde38b146105eb578063f5167b4b14610607578063fb980d8d146106255761021c565b8063b8dc491b1461052b578063bb9488e614610547578063c399b21714610577578063dd522bd5146105955761021c565b806384b768cc116100f457806384b768cc14610497578063850fd1d4146104b35780638da5cb5b146104d1578063a1cc5aaf146104ef578063ae898f0b1461050d5761021c565b80636f3ec7741461045d578063715018a61461047957806379ba5097146104835780638456cb591461048d5761021c565b80633f85861f116101a85780635f31696d116101775780635f31696d1461039b578063639ab82f146103d057806366d7a82b146103ec578063697dbaf41461040e5780636e04ff0d1461042c5761021c565b80633f85861f146103275780634585e33b1461034357806350d6fd7e1461035f5780635c975abb1461037d5761021c565b806315676130116101ef57806315676130146102955780631fccd9df146102b35780632a29fee4146102d15780633490ca0c146103015780633f4ba83a1461031d5761021c565b80630336252d14610221578063044b65161461023f5780630de747f81461025b5780631303f2c314610277575b600080fd5b610229610641565b6040516102369190613ae9565b60405180910390f35b61025960048036038101906102549190613b4b565b6106cf565b005b61027560048036038101906102709190613bdc565b610749565b005b61027f610846565b60405161028c9190613c18565b60405180910390f35b61029d61086c565b6040516102aa9190613c4c565b60405180910390f35b6102bb61092d565b6040516102c89190613c80565b60405180910390f35b6102eb60048036038101906102e69190613cc7565b610ab1565b6040516102f89190613c80565b60405180910390f35b61031b60048036038101906103169190613cc7565b610c61565b005b610325610cae565b005b610341600480360381019061033c9190613cc7565b610cc0565b005b61035d60048036038101906103589190613d59565b610d0d565b005b610367610ece565b6040516103749190613c80565b60405180910390f35b610385611048565b6040516103929190613dc1565b60405180910390f35b6103b560048036038101906103b09190613ddc565b61105f565b6040516103c796959493929190613e47565b60405180910390f35b6103ea60048036038101906103e59190613efe565b6111a7565b005b6103f4611358565b604051610405959493929190614185565b60405180910390f35b610416611578565b6040516104239190613c80565b60405180910390f35b61044660048036038101906104419190613d59565b61157e565b60405161045492919061428b565b60405180910390f35b610477600480360381019061047291906142bb565b6115c7565b005b610481611693565b005b61048b6116a7565b005b610495611736565b005b6104b160048036038101906104ac919061444c565b611748565b005b6104bb6117a4565b6040516104c89190613c80565b60405180910390f35b6104d96117aa565b6040516104e69190613c18565b60405180910390f35b6104f76117d3565b6040516105049190613ae9565b60405180910390f35b6105156118b2565b6040516105229190613c80565b60405180910390f35b61054560048036038101906105409190614495565b6118b8565b005b610561600480360381019061055c9190613cc7565b6119a5565b60405161056e9190613c18565b60405180910390f35b61057f6119e4565b60405161058c9190613ae9565b60405180910390f35b6105af60048036038101906105aa91906144d5565b611f1d565b005b6105b9612153565b6040516105c69190613c18565b60405180910390f35b6105e960048036038101906105e4919061444c565b61217d565b005b61060560048036038101906106009190613ddc565b612191565b005b61060f61223e565b60405161061c9190613c80565b60405180910390f35b61063f600480360381019061063a91906145c4565b612244565b005b606060058054806020026020016040519081016040528092919081815260200182805480156106c557602002820191906000526020600020905b8160009054906101000a900473ffffffffffffffffffffffffffffffffffffffff1673ffffffffffffffffffffffffffffffffffffffff168152602001906001019080831161067b575b5050505050905090565b6106d7612987565b8273ffffffffffffffffffffffffffffffffffffffff1663058a3a2483836040518363ffffffff1660e01b815260040161071292919061464c565b600060405180830381600087803b15801561072c57600080fd5b505af1158015610740573d6000803e3d6000fd5b50505050505050565b610751612987565b6000819050600073ffffffffffffffffffffffffffffffffffffffff168173ffffffffffffffffffffffffffffffffffffffff16036107bc576040517fd92e233d00000000000000000000000000000000000000000000000000000000815260040160405180910390fd5b60004790508173ffffffffffffffffffffffffffffffffffffffff166108fc829081150290604051600060405180830381858888f19350505050158015610807573d6000803e3d6000fd5b507f389d42805220f1328ee109bc9029089ee2d378a3cb574f9e3d88118b809523bd81836040516108399291906146d4565b60405180910390a1505050565b600a60009054906101000a900473ffffffffffffffffffffffffffffffffffffffff1681565b6000806108776117d3565b905061088161092d565b600a60009054906101000a900473ffffffffffffffffffffffffffffffffffffffff1673ffffffffffffffffffffffffffffffffffffffff166370a08231306040518263ffffffff1660e01b81526004016108dc9190613c18565b602060405180830381865afa1580156108f9573d6000803e3d6000fd5b505050506040513d601f19601f8201168201806040525081019061091d9190614712565b610927919061476e565b91505090565b6000806109386117d3565b905060005b8151811015610aac5760006004600084848151811061095f5761095e6147b1565b5b602002602001015173ffffffffffffffffffffffffffffffffffffffff1673ffffffffffffffffffffffffffffffffffffffff1681526020019081526020016000206040518060c0016040529081600082015481526020016001820160009054906101000a900460ff161515151581526020016001820160019054906101000a900460ff1660ff1660ff1681526020016001820160029054906101000a900460ff1660ff1660ff1681526020016001820160039054906101000a900466ffffffffffffff1666ffffffffffffff1666ffffffffffffff16815260200160018201600a9054906101000a900466ffffffffffffff1666ffffffffffffff1666ffffffffffffff16815250509050806000015181606001518260400151610a8491906147e0565b60ff16610a919190614815565b84610a9c9190614857565b935050808060010191505061093d565b505090565b600080610abc6117d3565b905060005b8151811015610c5a57600060046000848481518110610ae357610ae26147b1565b5b602002602001015173ffffffffffffffffffffffffffffffffffffffff1673ffffffffffffffffffffffffffffffffffffffff1681526020019081526020016000206040518060c0016040529081600082015481526020016001820160009054906101000a900460ff161515151581526020016001820160019054906101000a900460ff1660ff1660ff1681526020016001820160029054906101000a900460ff1660ff1660ff1681526020016001820160039054906101000a900466ffffffffffffff1666ffffffffffffff1666ffffffffffffff16815260200160018201600a9054906101000a900466ffffffffffffff1666ffffffffffffff1666ffffffffffffff168152505090506000816060015160ff1690505b816040015160ff16811015610c4b578562093a8082610c1b9190614815565b42610c269190614857565b11610c3e57816000015185610c3b9190614857565b94505b8080600101915050610bfc565b50508080600101915050610ac1565b5050919050565b610c69612987565b7f508d5d254c73fc57859953ca2255ad83280d37db4feabf411a1b350b176129bd60065482604051610c9c92919061488b565b60405180910390a18060068190555050565b610cb6612987565b610cbe612a0e565b565b610cc8612987565b7f04330086c73b1fe1e13cd47a61c692e7c4399b5de08ed94b7ab824684af0932360095482604051610cfb92919061488b565b60405180910390a18060098190555050565b60006005805490501115610e6e576000805b600580549050811015610e295760058181548110610d4057610d3f6147b1565b5b9060005260206000200160009054906101000a900473ffffffffffffffffffffffffffffffffffffffff1673ffffffffffffffffffffffffffffffffffffffff163373ffffffffffffffffffffffffffffffffffffffff161480610e0e5750600073ffffffffffffffffffffffffffffffffffffffff1660058281548110610dcb57610dca6147b1565b5b9060005260206000200160009054906101000a900473ffffffffffffffffffffffffffffffffffffffff1673ffffffffffffffffffffffffffffffffffffffff16145b15610e1c5760019150610e29565b8080600101915050610d1f565b5080610e6c57336040517f9437e3bd000000000000000000000000000000000000000000000000000000008152600401610e639190613c18565b60405180910390fd5b505b610e76612a71565b60008282810190610e87919061444c565b9050610e9281612ab2565b7f0b1fb210ec5764031c5903056a874464bf3cf67c63c7d82278903adb99585b4a81604051610ec19190613ae9565b60405180910390a1505050565b600080610ed96117d3565b905060005b815181101561104357600060046000848481518110610f0057610eff6147b1565b5b602002602001015173ffffffffffffffffffffffffffffffffffffffff1673ffffffffffffffffffffffffffffffffffffffff1681526020019081526020016000206040518060c0016040529081600082015481526020016001820160009054906101000a900460ff161515151581526020016001820160019054906101000a900460ff1660ff1660ff1681526020016001820160029054906101000a900460ff1660ff1660ff1681526020016001820160039054906101000a900466ffffffffffffff1666ffffffffffffff1666ffffffffffffff16815260200160018201600a9054906101000a900466ffffffffffffff1666ffffffffffffff1666ffffffffffffff16815250509050806040015160ff16816060015160ff161015611035578060000151846110329190614857565b93505b508080600101915050610ede565b505090565b6000600160149054906101000a900460ff16905090565b6000806000806000806000600460008973ffffffffffffffffffffffffffffffffffffffff1673ffffffffffffffffffffffffffffffffffffffff1681526020019081526020016000206040518060c0016040529081600082015481526020016001820160009054906101000a900460ff161515151581526020016001820160019054906101000a900460ff1660ff1660ff1681526020016001820160029054906101000a900460ff1660ff1660ff1681526020016001820160039054906101000a900466ffffffffffffff1666ffffffffffffff1666ffffffffffffff16815260200160018201600a9054906101000a900466ffffffffffffff1666ffffffffffffff1666ffffffffffffff16815250509050806000015181602001518260400151836060015184608001518560a001519650965096509650965096505091939550919395565b6111af612987565b60005b82829050811015611353576111f88383838181106111d3576111d26147b1565b5b90506020020160208101906111e89190613ddc565b600261302690919063ffffffff16565b156112e257600060046000858585818110611216576112156147b1565b5b905060200201602081019061122b9190613ddc565b73ffffffffffffffffffffffffffffffffffffffff1673ffffffffffffffffffffffffffffffffffffffff16815260200190815260200160002060010160006101000a81548160ff0219169083151502179055507f8176fc5412eb5076fee7f1a264915b808c24d495c2698c189030e5200e707d258383838181106112b3576112b26147b1565b5b90506020020160208101906112c89190613ddc565b6040516112d59190613c18565b60405180910390a1611346565b8282828181106112f5576112f46147b1565b5b905060200201602081019061130a9190613ddc565b6040517f9d81cdfd00000000000000000000000000000000000000000000000000000000815260040161133d9190613c18565b60405180910390fd5b80806001019150506111b2565b505050565b60608060608060606113686117d3565b945060008551905060005b865181101561156f57600060046000898481518110611395576113946147b1565b5b602002602001015173ffffffffffffffffffffffffffffffffffffffff1673ffffffffffffffffffffffffffffffffffffffff1681526020019081526020016000206040518060c0016040529081600082015481526020016001820160009054906101000a900460ff161515151581526020016001820160019054906101000a900460ff1660ff1660ff1681526020016001820160029054906101000a900460ff1660ff1660ff1681526020016001820160039054906101000a900466ffffffffffffff1666ffffffffffffff1666ffffffffffffff16815260200160018201600a9054906101000a900466ffffffffffffff1666ffffffffffffff1666ffffffffffffff1681525050905080600001518783815181106114b9576114b86147b1565b5b60200260200101818152505080604001518683815181106114dd576114dc6147b1565b5b602002602001019060ff16908160ff16815250508060800151858381518110611509576115086147b1565b5b602002602001019066ffffffffffffff16908166ffffffffffffff16815250508060a00151848381518110611541576115406147b1565b5b602002602001019066ffffffffffffff16908166ffffffffffffff1681525050508080600101915050611373565b50509091929394565b60095481565b6000606061158a612a71565b60006115946119e4565b905060008151119250806040516020016115ae9190613ae9565b6040516020818303038152906040529150509250929050565b6115cf612987565b600083905060008390506115e4818685613056565b8173ffffffffffffffffffffffffffffffffffffffff166393f7aa6785856040518363ffffffff1660e01b815260040161161f9291906148b4565b600060405180830381600087803b15801561163957600080fd5b505af115801561164d573d6000803e3d6000fd5b505050507f42c5a1aa2896dbff11ccaedf5e887abef468dbd09f3b007ead8de6bc0729597b858585604051611684939291906148dd565b60405180910390a15050505050565b61169b612987565b6116a56000613165565b565b60006116b1613196565b90508073ffffffffffffffffffffffffffffffffffffffff166116d2612153565b73ffffffffffffffffffffffffffffffffffffffff161461172a57806040517f118cdaa70000000000000000000000000000000000000000000000000000000081526004016117219190613c18565b60405180910390fd5b61173381613165565b50565b61173e612987565b61174661319e565b565b611750612987565b7fbcc1de8f0bbbccaa2eb378e063e2b23f69219398ca39df8eab1e04a52fa7eb3c600582604051611782929190614a00565b60405180910390a180600590805190602001906117a0929190613902565b5050565b60085481565b60008060009054906101000a900473ffffffffffffffffffffffffffffffffffffffff16905090565b606060006117e16002613200565b905060008167ffffffffffffffff8111156117ff576117fe61430e565b5b60405190808252806020026020018201604052801561182d5781602001602082028036833780820191505090505b50905060005b828110156118a95761184f81600261321590919063ffffffff16565b828281518110611862576118616147b1565b5b602002602001019073ffffffffffffffffffffffffffffffffffffffff16908173ffffffffffffffffffffffffffffffffffffffff16815250508080600101915050611833565b50809250505090565b60065481565b6118c0612987565b60008273ffffffffffffffffffffffffffffffffffffffff166370a08231306040518263ffffffff1660e01b81526004016118fb9190613c18565b602060405180830381865afa158015611918573d6000803e3d6000fd5b505050506040513d601f19601f8201168201806040525081019061193c9190614712565b905061194983838361322f565b8273ffffffffffffffffffffffffffffffffffffffff167f17ebca81c5f7ed9c553f76ca3f4a03b93af7d9ea1f3348a879306375452ca46f6119896117aa565b836040516119989291906148b4565b60405180910390a2505050565b600581815481106119b557600080fd5b906000526020600020016000915054906101000a900473ffffffffffffffffffffffffffffffffffffffff1681565b606060006119f06117d3565b90506000815167ffffffffffffffff811115611a0f57611a0e61430e565b5b604051908082528060200260200182016040528015611a3d5781602001602082028036833780820191505090505b509050600060065490506000600a60009054906101000a900473ffffffffffffffffffffffffffffffffffffffff169050600080600954905060008373ffffffffffffffffffffffffffffffffffffffff166370a08231306040518263ffffffff1660e01b8152600401611ab19190613c18565b602060405180830381865afa158015611ace573d6000803e3d6000fd5b505050506040513d601f19601f82011682018060405250810190611af29190614712565b9050611afc61398c565b60005b8851811015611f0257600460008a8381518110611b1f57611b1e6147b1565b5b602002602001015173ffffffffffffffffffffffffffffffffffffffff1673ffffffffffffffffffffffffffffffffffffffff1681526020019081526020016000206040518060c0016040529081600082015481526020016001820160009054906101000a900460ff161515151581526020016001820160019054906101000a900460ff1660ff1660ff1681526020016001820160029054906101000a900460ff1660ff1660ff1681526020016001820160039054906101000a900466ffffffffffffff1666ffffffffffffff1666ffffffffffffff16815260200160018201600a9054906101000a900466ffffffffffffff1666ffffffffffffff1666ffffffffffffff168152505091506000898281518110611c4057611c3f6147b1565b5b6020026020010151905060008173ffffffffffffffffffffffffffffffffffffffff166348e9c65e896040518263ffffffff1660e01b8152600401611c859190613c18565b60a060405180830381865afa158015611ca2573d6000803e3d6000fd5b505050506040513d601f19601f82011682018060405250810190611cc69190614add565b6020015190508884600001511115611d37578a8381518110611ceb57611cea6147b1565b5b602002602001015184600001518a6040517f18b0ef14000000000000000000000000000000000000000000000000000000008152600401611d2e93929190614b0a565b60405180910390fd5b4286856080015166ffffffffffffff16611d519190614857565b11158015611d6c5750428460a0015166ffffffffffffff1611155b8015611d785750428111155b8015611d88575083600001518510155b8015611da15750836040015160ff16846060015160ff16105b8015611db1575088846000015111155b8015611e6557503073ffffffffffffffffffffffffffffffffffffffff168273ffffffffffffffffffffffffffffffffffffffff166348e9c65e8a6040518263ffffffff1660e01b8152600401611e089190613c18565b60a060405180830381865afa158015611e25573d6000803e3d6000fd5b505050506040513d601f19601f82011682018060405250810190611e499190614add565b6000015173ffffffffffffffffffffffffffffffffffffffff16145b15611ef3578a8381518110611e7d57611e7c6147b1565b5b60200260200101518a8881518110611e9857611e976147b1565b5b602002602001019073ffffffffffffffffffffffffffffffffffffffff16908173ffffffffffffffffffffffffffffffffffffffff16815250508680611edd90614b41565b975050836000015185611ef09190614b89565b94505b50508080600101915050611aff565b5087518414611f0f578387525b869850505050505050505090565b6000611f276132ae565b905060008160000160089054906101000a900460ff1615905060008260000160009054906101000a900467ffffffffffffffff1690506000808267ffffffffffffffff16148015611f755750825b9050600060018367ffffffffffffffff16148015611faa575060003073ffffffffffffffffffffffffffffffffffffffff163b145b905081158015611fb8575080155b15611fef576040517ff92ee8a900000000000000000000000000000000000000000000000000000000815260040160405180910390fd5b60018560000160006101000a81548167ffffffffffffffff021916908367ffffffffffffffff160217905550831561203f5760018560000160086101000a81548160ff0219169083151502179055505b6120488a613165565b886005908051906020019061205e929190613902565b508760098190555086600a60006101000a81548173ffffffffffffffffffffffffffffffffffffffff021916908373ffffffffffffffffffffffffffffffffffffffff160217905550856006819055507f48154c24998d5bf5add9279c50f1ec3c7286ad148f3e340237fa2afcbe2b56f0898989896040516120e39493929190614bbd565b60405180910390a183156121475760008560000160086101000a81548160ff0219169083151502179055507fc7f505b2f371ae2175ee4913f4499e1f2633a7b5936321eed1cdaeb6115181d2600160405161213e9190614c58565b60405180910390a15b50505050505050505050565b6000600160009054906101000a900473ffffffffffffffffffffffffffffffffffffffff16905090565b612185612987565b61218e81612ab2565b50565b612199612987565b80600160006101000a81548173ffffffffffffffffffffffffffffffffffffffff021916908373ffffffffffffffffffffffffffffffffffffffff1602179055508073ffffffffffffffffffffffffffffffffffffffff166121f96117aa565b73ffffffffffffffffffffffffffffffffffffffff167f38d16b8cac22d99fc7c124b9cd0de2d3fa1faef420bfe791d8c362d765e2270060405160405180910390a350565b60075481565b61224c612987565b6000806000600654118015612262575084600654105b156122d2578686600081811061227b5761227a6147b1565b5b90506020020160208101906122909190613ddc565b856006546040517f18b0ef140000000000000000000000000000000000000000000000000000000081526004016122c993929190614b0a565b60405180910390fd5b60005b8787905081101561297d5760008888838181106122f5576122f46147b1565b5b905060200201602081019061230a9190613ddc565b90503073ffffffffffffffffffffffffffffffffffffffff168173ffffffffffffffffffffffffffffffffffffffff166348e9c65e600a60009054906101000a900473ffffffffffffffffffffffffffffffffffffffff166040518263ffffffff1660e01b815260040161237e9190613c18565b60a060405180830381865afa15801561239b573d6000803e3d6000fd5b505050506040513d601f19601f820116820180604052508101906123bf9190614add565b6000015173ffffffffffffffffffffffffffffffffffffffff161461243f5780600a60009054906101000a900473ffffffffffffffffffffffffffffffffffffffff166040517f10bc0b1e00000000000000000000000000000000000000000000000000000000815260040161243692919061464c565b60405180910390fd5b61247a898984818110612455576124546147b1565b5b905060200201602081019061246a9190613ddc565b60026132d690919063ffffffff16565b935060009250831580156125015750600460008a8a858181106124a05761249f6147b1565b5b90506020020160208101906124b59190613ddc565b73ffffffffffffffffffffffffffffffffffffffff1673ffffffffffffffffffffffffffffffffffffffff16815260200190815260200160002060010160009054906101000a900460ff165b1561258057600460008a8a8581811061251d5761251c6147b1565b5b90506020020160208101906125329190613ddc565b73ffffffffffffffffffffffffffffffffffffffff1673ffffffffffffffffffffffffffffffffffffffff16815260200190815260200160002060010160029054906101000a900460ff1692505b6000600460008b8b86818110612599576125986147b1565b5b90506020020160208101906125ae9190613ddc565b73ffffffffffffffffffffffffffffffffffffffff1673ffffffffffffffffffffffffffffffffffffffff1681526020019081526020016000206040518060c0016040529081600082015481526020016001820160009054906101000a900460ff161515151581526020016001820160019054906101000a900460ff1660ff1660ff1681526020016001820160029054906101000a900460ff1660ff1660ff1681526020016001820160039054906101000a900466ffffffffffffff1666ffffffffffffff1666ffffffffffffff16815260200160018201600a9054906101000a900466ffffffffffffff1666ffffffffffffff1666ffffffffffffff1681525050905060018160200190151590811515815250508781600001818152505086816040019060ff16908160ff16815250506000816060019060ff16908160ff1681525050858160a0019066ffffffffffffff16908166ffffffffffffff168152505080600460008c8c87818110612728576127276147b1565b5b905060200201602081019061273d9190613ddc565b73ffffffffffffffffffffffffffffffffffffffff1673ffffffffffffffffffffffffffffffffffffffff1681526020019081526020016000206000820151816000015560208201518160010160006101000a81548160ff02191690831515021790555060408201518160010160016101000a81548160ff021916908360ff16021790555060608201518160010160026101000a81548160ff021916908360ff16021790555060808201518160010160036101000a81548166ffffffffffffff021916908366ffffffffffffff16021790555060a082015181600101600a6101000a81548166ffffffffffffff021916908366ffffffffffffff160217905550905050600060075411801561285a5750612855610ece565b600754105b156128a357612867610ece565b6040517fe0162c9000000000000000000000000000000000000000000000000000000000815260040161289a9190613c80565b60405180910390fd5b60006008541180156128bd57506128b861092d565b600854105b15612906576128ca61092d565b6040517f96e0090f0000000000000000000000000000000000000000000000000000000081526004016128fd9190613c80565b60405180910390fd5b7febef4fa55256f5e02c6edb88e4d7b3cdce532f1dc3088e6d31389d7601c32c7b8a8a8581811061293a576129396147b1565b5b905060200201602081019061294f9190613ddc565b8989878a8a60405161296696959493929190614ca4565b60405180910390a1505080806001019150506122d5565b5050505050505050565b61298f613196565b73ffffffffffffffffffffffffffffffffffffffff166129ad6117aa565b73ffffffffffffffffffffffffffffffffffffffff1614612a0c576129d0613196565b6040517f118cdaa7000000000000000000000000000000000000000000000000000000008152600401612a039190613c18565b60405180910390fd5b565b612a16613306565b6000600160146101000a81548160ff0219169083151502179055507f5db9ee0a495bf2e6ff9c91a7834c1ba4fdd244a5e8aa4e537bd38aeae4b073aa612a5a613196565b604051612a679190613c18565b60405180910390a1565b612a79611048565b15612ab0576040517fd93c066500000000000000000000000000000000000000000000000000000000815260040160405180910390fd5b565b612aba612a71565b600060095490506000600a60009054906101000a900473ffffffffffffffffffffffffffffffffffffffff169050600081905060008173ffffffffffffffffffffffffffffffffffffffff166370a08231306040518263ffffffff1660e01b8152600401612b289190613c18565b602060405180830381865afa158015612b45573d6000803e3d6000fd5b505050506040513d601f19601f82011682018060405250810190612b699190614712565b9050612b7361398c565b60005b865181101561301d5760046000888381518110612b9657612b956147b1565b5b602002602001015173ffffffffffffffffffffffffffffffffffffffff1673ffffffffffffffffffffffffffffffffffffffff1681526020019081526020016000206040518060c0016040529081600082015481526020016001820160009054906101000a900460ff161515151581526020016001820160019054906101000a900460ff1660ff1660ff1681526020016001820160029054906101000a900460ff1660ff1660ff1681526020016001820160039054906101000a900466ffffffffffffff1666ffffffffffffff1666ffffffffffffff16815260200160018201600a9054906101000a900466ffffffffffffff1666ffffffffffffff1666ffffffffffffff168152505091506000878281518110612cb757612cb66147b1565b5b6020026020010151905060008173ffffffffffffffffffffffffffffffffffffffff166348e9c65e886040518263ffffffff1660e01b8152600401612cfc9190613c18565b60a060405180830381865afa158015612d19573d6000803e3d6000fd5b505050506040513d601f19601f82011682018060405250810190612d3d9190614add565b6020015190504288856080015166ffffffffffffff16612d5d9190614857565b11158015612d785750428460a0015166ffffffffffffff1611155b8015612d845750428111155b8015612d9d5750836040015160ff16846060015160ff16105b8015612dad575083600001518510155b8015612dbf5750600654846000015111155b8015612dd357506001151584602001511515145b1561300e57612e01868a8581518110612def57612dee6147b1565b5b60200260200101518660000151613056565b8173ffffffffffffffffffffffffffffffffffffffff166393f7aa678886600001516040518363ffffffff1660e01b8152600401612e409291906148b4565b600060405180830381600087803b158015612e5a57600080fd5b505af1925050508015612e6b575060015b612ea1576040517f6aabed4e00000000000000000000000000000000000000000000000000000000815260040160405180910390fd5b42600460008b8681518110612eb957612eb86147b1565b5b602002602001015173ffffffffffffffffffffffffffffffffffffffff1673ffffffffffffffffffffffffffffffffffffffff16815260200190815260200160002060010160036101000a81548166ffffffffffffff021916908366ffffffffffffff160217905550600460008a8581518110612f3957612f386147b1565b5b602002602001015173ffffffffffffffffffffffffffffffffffffffff1673ffffffffffffffffffffffffffffffffffffffff168152602001908152602001600020600101600281819054906101000a900460ff1680929190612f9b90614d05565b91906101000a81548160ff021916908360ff160217905550507f42c5a1aa2896dbff11ccaedf5e887abef468dbd09f3b007ead8de6bc0729597b898481518110612fe857612fe76147b1565b5b6020026020010151888660000151604051613005939291906148dd565b60405180910390a15b50508080600101915050612b76565b50505050505050565b600061304e836000018373ffffffffffffffffffffffffffffffffffffffff1660001b613346565b905092915050565b60008373ffffffffffffffffffffffffffffffffffffffff1663095ea7b384846040516024016130879291906148b4565b604051602081830303815290604052915060e01b6020820180517bffffffffffffffffffffffffffffffffffffffffffffffffffffffff838183161783525050505090506130d5848261345a565b61315f57613154848573ffffffffffffffffffffffffffffffffffffffff1663095ea7b386600060405160240161310d929190614d69565b604051602081830303815290604052915060e01b6020820180517bffffffffffffffffffffffffffffffffffffffffffffffffffffffff8381831617835250505050613521565b61315e8482613521565b5b50505050565b600160006101000a81549073ffffffffffffffffffffffffffffffffffffffff0219169055613193816135b8565b50565b600033905090565b6131a6612a71565b60018060146101000a81548160ff0219169083151502179055507f62e78cea01bee320cd4e420270b5ea74000d11b0c9f74754ebdbfc544b05a2586131e9613196565b6040516131f69190613c18565b60405180910390a1565b600061320e8260000161367c565b9050919050565b6000613224836000018361368d565b60001c905092915050565b6132a9838473ffffffffffffffffffffffffffffffffffffffff1663a9059cbb85856040516024016132629291906148b4565b604051602081830303815290604052915060e01b6020820180517bffffffffffffffffffffffffffffffffffffffffffffffffffffffff8381831617835250505050613521565b505050565b60007ff0c57e16840df040f15088dc2f81fe391c3923bec73e23a9662efc9c229c6a00905090565b60006132fe836000018373ffffffffffffffffffffffffffffffffffffffff1660001b6136b8565b905092915050565b61330e611048565b613344576040517f8dfc202b00000000000000000000000000000000000000000000000000000000815260040160405180910390fd5b565b6000808360010160008481526020019081526020016000205490506000811461344e5760006001826133789190614b89565b90506000600186600001805490506133909190614b89565b90508082146133ff5760008660000182815481106133b1576133b06147b1565b5b90600052602060002001549050808760000184815481106133d5576133d46147b1565b5b90600052602060002001819055508387600101600083815260200190815260200160002081905550505b8560000180548061341357613412614d92565b5b600190038181906000526020600020016000905590558560010160008681526020019081526020016000206000905560019350505050613454565b60009150505b92915050565b60008060008473ffffffffffffffffffffffffffffffffffffffff16846040516134849190614dfd565b6000604051808303816000865af19150503d80600081146134c1576040519150601f19603f3d011682016040523d82523d6000602084013e6134c6565b606091505b50915091508180156134f457506000815114806134f35750808060200190518101906134f29190614e40565b5b5b8015613517575060008573ffffffffffffffffffffffffffffffffffffffff163b115b9250505092915050565b600061354c828473ffffffffffffffffffffffffffffffffffffffff1661372890919063ffffffff16565b9050600081511415801561357157508080602001905181019061356f9190614e40565b155b156135b357826040517f5274afe70000000000000000000000000000000000000000000000000000000081526004016135aa9190613c18565b60405180910390fd5b505050565b60008060009054906101000a900473ffffffffffffffffffffffffffffffffffffffff169050816000806101000a81548173ffffffffffffffffffffffffffffffffffffffff021916908373ffffffffffffffffffffffffffffffffffffffff1602179055508173ffffffffffffffffffffffffffffffffffffffff168173ffffffffffffffffffffffffffffffffffffffff167f8be0079c531659141344cd1fd0a4f28419497f9722a3daafe3b4186f6b6457e060405160405180910390a35050565b600081600001805490509050919050565b60008260000182815481106136a5576136a46147b1565b5b9060005260206000200154905092915050565b60006136c4838361373e565b61371d578260000182908060018154018082558091505060019003906000526020600020016000909190919091505582600001805490508360010160008481526020019081526020016000208190555060019050613722565b600090505b92915050565b606061373683836000613761565b905092915050565b600080836001016000848152602001908152602001600020541415905092915050565b6060814710156137a857306040517fcd78605900000000000000000000000000000000000000000000000000000000815260040161379f9190613c18565b60405180910390fd5b6000808573ffffffffffffffffffffffffffffffffffffffff1684866040516137d19190614dfd565b60006040518083038185875af1925050503d806000811461380e576040519150601f19603f3d011682016040523d82523d6000602084013e613813565b606091505b509150915061382386838361382e565b925050509392505050565b6060826138435761383e826138bd565b6138b5565b6000825114801561386b575060008473ffffffffffffffffffffffffffffffffffffffff163b145b156138ad57836040517f9996b3150000000000000000000000000000000000000000000000000000000081526004016138a49190613c18565b60405180910390fd5b8190506138b6565b5b9392505050565b6000815111156138d05780518082602001fd5b6040517f1425ea4200000000000000000000000000000000000000000000000000000000815260040160405180910390fd5b82805482825590600052602060002090810192821561397b579160200282015b8281111561397a5782518260006101000a81548173ffffffffffffffffffffffffffffffffffffffff021916908373ffffffffffffffffffffffffffffffffffffffff16021790555091602001919060010190613922565b5b50905061398891906139dc565b5090565b6040518060c0016040528060008152602001600015158152602001600060ff168152602001600060ff168152602001600066ffffffffffffff168152602001600066ffffffffffffff1681525090565b5b808211156139f55760008160009055506001016139dd565b5090565b600081519050919050565b600082825260208201905092915050565b6000819050602082019050919050565b600073ffffffffffffffffffffffffffffffffffffffff82169050919050565b6000613a5082613a25565b9050919050565b613a6081613a45565b82525050565b6000613a728383613a57565b60208301905092915050565b6000602082019050919050565b6000613a96826139f9565b613aa08185613a04565b9350613aab83613a15565b8060005b83811015613adc578151613ac38882613a66565b9750613ace83613a7e565b925050600181019050613aaf565b5085935050505092915050565b60006020820190508181036000830152613b038184613a8b565b905092915050565b6000604051905090565b600080fd5b600080fd5b613b2881613a45565b8114613b3357600080fd5b50565b600081359050613b4581613b1f565b92915050565b600080600060608486031215613b6457613b63613b15565b5b6000613b7286828701613b36565b9350506020613b8386828701613b36565b9250506040613b9486828701613b36565b9150509250925092565b6000613ba982613a25565b9050919050565b613bb981613b9e565b8114613bc457600080fd5b50565b600081359050613bd681613bb0565b92915050565b600060208284031215613bf257613bf1613b15565b5b6000613c0084828501613bc7565b91505092915050565b613c1281613a45565b82525050565b6000602082019050613c2d6000830184613c09565b92915050565b6000819050919050565b613c4681613c33565b82525050565b6000602082019050613c616000830184613c3d565b92915050565b6000819050919050565b613c7a81613c67565b82525050565b6000602082019050613c956000830184613c71565b92915050565b613ca481613c67565b8114613caf57600080fd5b50565b600081359050613cc181613c9b565b92915050565b600060208284031215613cdd57613cdc613b15565b5b6000613ceb84828501613cb2565b91505092915050565b600080fd5b600080fd5b600080fd5b60008083601f840112613d1957613d18613cf4565b5b8235905067ffffffffffffffff811115613d3657613d35613cf9565b5b602083019150836001820283011115613d5257613d51613cfe565b5b9250929050565b60008060208385031215613d7057613d6f613b15565b5b600083013567ffffffffffffffff811115613d8e57613d8d613b1a565b5b613d9a85828601613d03565b92509250509250929050565b60008115159050919050565b613dbb81613da6565b82525050565b6000602082019050613dd66000830184613db2565b92915050565b600060208284031215613df257613df1613b15565b5b6000613e0084828501613b36565b91505092915050565b600060ff82169050919050565b613e1f81613e09565b82525050565b600066ffffffffffffff82169050919050565b613e4181613e25565b82525050565b600060c082019050613e5c6000830189613c71565b613e696020830188613db2565b613e766040830187613e16565b613e836060830186613e16565b613e906080830185613e38565b613e9d60a0830184613e38565b979650505050505050565b60008083601f840112613ebe57613ebd613cf4565b5b8235905067ffffffffffffffff811115613edb57613eda613cf9565b5b602083019150836020820283011115613ef757613ef6613cfe565b5b9250929050565b60008060208385031215613f1557613f14613b15565b5b600083013567ffffffffffffffff811115613f3357613f32613b1a565b5b613f3f85828601613ea8565b92509250509250929050565b600081519050919050565b600082825260208201905092915050565b6000819050602082019050919050565b613f8081613c67565b82525050565b6000613f928383613f77565b60208301905092915050565b6000602082019050919050565b6000613fb682613f4b565b613fc08185613f56565b9350613fcb83613f67565b8060005b83811015613ffc578151613fe38882613f86565b9750613fee83613f9e565b925050600181019050613fcf565b5085935050505092915050565b600081519050919050565b600082825260208201905092915050565b6000819050602082019050919050565b61403e81613e09565b82525050565b60006140508383614035565b60208301905092915050565b6000602082019050919050565b600061407482614009565b61407e8185614014565b935061408983614025565b8060005b838110156140ba5781516140a18882614044565b97506140ac8361405c565b92505060018101905061408d565b5085935050505092915050565b600081519050919050565b600082825260208201905092915050565b6000819050602082019050919050565b6140fc81613e25565b82525050565b600061410e83836140f3565b60208301905092915050565b6000602082019050919050565b6000614132826140c7565b61413c81856140d2565b9350614147836140e3565b8060005b8381101561417857815161415f8882614102565b975061416a8361411a565b92505060018101905061414b565b5085935050505092915050565b600060a082019050818103600083015261419f8188613a8b565b905081810360208301526141b38187613fab565b905081810360408301526141c78186614069565b905081810360608301526141db8185614127565b905081810360808301526141ef8184614127565b90509695505050505050565b600081519050919050565b600082825260208201905092915050565b60005b8381101561423557808201518184015260208101905061421a565b60008484015250505050565b6000601f19601f8301169050919050565b600061425d826141fb565b6142678185614206565b9350614277818560208601614217565b61428081614241565b840191505092915050565b60006040820190506142a06000830185613db2565b81810360208301526142b28184614252565b90509392505050565b6000806000606084860312156142d4576142d3613b15565b5b60006142e286828701613b36565b93505060206142f386828701613b36565b925050604061430486828701613cb2565b9150509250925092565b7f4e487b7100000000000000000000000000000000000000000000000000000000600052604160045260246000fd5b61434682614241565b810181811067ffffffffffffffff821117156143655761436461430e565b5b80604052505050565b6000614378613b0b565b9050614384828261433d565b919050565b600067ffffffffffffffff8211156143a4576143a361430e565b5b602082029050602081019050919050565b60006143c86143c384614389565b61436e565b905080838252602082019050602084028301858111156143eb576143ea613cfe565b5b835b8181101561441457806144008882613b36565b8452602084019350506020810190506143ed565b5050509392505050565b600082601f83011261443357614432613cf4565b5b81356144438482602086016143b5565b91505092915050565b60006020828403121561446257614461613b15565b5b600082013567ffffffffffffffff8111156144805761447f613b1a565b5b61448c8482850161441e565b91505092915050565b600080604083850312156144ac576144ab613b15565b5b60006144ba85828601613b36565b92505060206144cb85828601613b36565b9150509250929050565b600080600080600060a086880312156144f1576144f0613b15565b5b60006144ff88828901613b36565b955050602086013567ffffffffffffffff8111156145205761451f613b1a565b5b61452c8882890161441e565b945050604061453d88828901613cb2565b935050606061454e88828901613b36565b925050608061455f88828901613cb2565b9150509295509295909350565b61457581613e09565b811461458057600080fd5b50565b6000813590506145928161456c565b92915050565b6145a181613e25565b81146145ac57600080fd5b50565b6000813590506145be81614598565b92915050565b6000806000806000608086880312156145e0576145df613b15565b5b600086013567ffffffffffffffff8111156145fe576145fd613b1a565b5b61460a88828901613ea8565b9550955050602061461d88828901613cb2565b935050604061462e88828901614583565b925050606061463f888289016145af565b9150509295509295909350565b60006040820190506146616000830185613c09565b61466e6020830184613c09565b9392505050565b6000819050919050565b600061469a61469561469084613a25565b614675565b613a25565b9050919050565b60006146ac8261467f565b9050919050565b60006146be826146a1565b9050919050565b6146ce816146b3565b82525050565b60006040820190506146e96000830185613c71565b6146f660208301846146c5565b9392505050565b60008151905061470c81613c9b565b92915050565b60006020828403121561472857614727613b15565b5b6000614736848285016146fd565b91505092915050565b7f4e487b7100000000000000000000000000000000000000000000000000000000600052601160045260246000fd5b600061477982613c33565b915061478483613c33565b92508282039050818112600084121682821360008512151617156147ab576147aa61473f565b5b92915050565b7f4e487b7100000000000000000000000000000000000000000000000000000000600052603260045260246000fd5b60006147eb82613e09565b91506147f683613e09565b9250828203905060ff81111561480f5761480e61473f565b5b92915050565b600061482082613c67565b915061482b83613c67565b925082820261483981613c67565b915082820484148315176148505761484f61473f565b5b5092915050565b600061486282613c67565b915061486d83613c67565b92508282019050808211156148855761488461473f565b5b92915050565b60006040820190506148a06000830185613c71565b6148ad6020830184613c71565b9392505050565b60006040820190506148c96000830185613c09565b6148d66020830184613c71565b9392505050565b60006060820190506148f26000830186613c09565b6148ff6020830185613c09565b61490c6040830184613c71565b949350505050565b600081549050919050565b60008190508160005260206000209050919050565b60008160001c9050919050565b600073ffffffffffffffffffffffffffffffffffffffff82169050919050565b600061497461496f83614934565b614941565b9050919050565b60006149878254614961565b9050919050565b6000600182019050919050565b60006149a682614914565b6149b08185613a04565b93506149bb8361491f565b8060005b838110156149f3576149d08261497b565b6149da8882613a66565b97506149e58361498e565b9250506001810190506149bf565b5085935050505092915050565b60006040820190508181036000830152614a1a818561499b565b90508181036020830152614a2e8184613a8b565b90509392505050565b600080fd5b600081519050614a4b81613b1f565b92915050565b600060a08284031215614a6757614a66614a37565b5b614a7160a061436e565b90506000614a8184828501614a3c565b6000830152506020614a95848285016146fd565b6020830152506040614aa9848285016146fd565b6040830152506060614abd848285016146fd565b6060830152506080614ad1848285016146fd565b60808301525092915050565b600060a08284031215614af357614af2613b15565b5b6000614b0184828501614a51565b91505092915050565b6000606082019050614b1f6000830186613c09565b614b2c6020830185613c71565b614b396040830184613c71565b949350505050565b6000614b4c82613c67565b91507fffffffffffffffffffffffffffffffffffffffffffffffffffffffffffffffff8203614b7e57614b7d61473f565b5b600182019050919050565b6000614b9482613c67565b9150614b9f83613c67565b9250828203905081811115614bb757614bb661473f565b5b92915050565b60006080820190508181036000830152614bd78187613a8b565b9050614be66020830186613c71565b614bf36040830185613c09565b614c006060830184613c71565b95945050505050565b6000819050919050565b600067ffffffffffffffff82169050919050565b6000614c42614c3d614c3884614c09565b614675565b614c13565b9050919050565b614c5281614c27565b82525050565b6000602082019050614c6d6000830184614c49565b92915050565b6000614c8e614c89614c8484613e09565b614675565b613c67565b9050919050565b614c9e81614c73565b82525050565b600060c082019050614cb96000830189613c09565b614cc66020830188613c71565b614cd36040830187614c95565b614ce06060830186614c95565b614ced6080830185613e38565b614cfa60a0830184613db2565b979650505050505050565b6000614d1082613e09565b915060ff8203614d2357614d2261473f565b5b600182019050919050565b6000819050919050565b6000614d53614d4e614d4984614d2e565b614675565b613c67565b9050919050565b614d6381614d38565b82525050565b6000604082019050614d7e6000830185613c09565b614d8b6020830184614d5a565b9392505050565b7f4e487b7100000000000000000000000000000000000000000000000000000000600052603160045260246000fd5b600081905092915050565b6000614dd7826141fb565b614de18185614dc1565b9350614df1818560208601614217565b80840191505092915050565b6000614e098284614dcc565b915081905092915050565b614e1d81613da6565b8114614e2857600080fd5b50565b600081519050614e3a81614e14565b92915050565b600060208284031215614e5657614e55613b15565b5b6000614e6484828501614e2b565b9150509291505056fea2646970667358221220bee89a806d6cd4a41f10f98474dd1c2d9a0bf9d7aba89c6c7417a94041379fca64736f6c63430008180033",
  "linkReferences": {},
  "deployedLinkReferences": {}
}